{"abi":[{"type":"constructor","inputs":[],"stateMutability":"nonpayable"},{"type":"receive","stateMutability":"payable"},{"type":"function","name":"PRICE_UPDATE_INTERVAL","inputs":[],"outputs":[{"name":"","type":"uint256","internalType":"uint256"}],"stateMutability":"view"},{"type":"function","name":"createMarket","inputs":[{"name":"question","type":"string","internalType":"string"},{"name":"duration","type":"uint256","internalType":"uint256"}],"outputs":[{"name":"marketId","type":"uint256","internalType":"uint256"}],"stateMutability":"nonpayable"},{"type":"function","name":"finalizeClaim","inputs":[{"name":"marketId","type":"uint256","internalType":"uint256"}],"outputs":[],"stateMutability":"nonpayable"},{"type":"function","name":"finalizePrice","inputs":[{"name":"marketId","type":"uint256","internalType":"uint256"}],"outputs":[],"stateMutability":"nonpayable"},{"type":"function","name":"getMarket","inputs":[{"name":"marketId","type":"uint256","internalType":"uint256"}],"outputs":[{"name":"question","type":"string","internalType":"string"},{"name":"resolutionTime","type":"uint256","internalType":"uint256"},{"name":"currentPrice","type":"uint32","internalType":"uint32"},{"name":"lastPriceUpdate","type":"uint256","internalType":"uint256"},{"name":"resolved","type":"bool","internalType":"bool"},{"name":"outcome","type":"bool","internalType":"bool"},{"name":"priceUpdatePending","type":"bool","internalType":"bool"},{"name":"yesSnap","type":"bytes32","internalType":"euint32"},{"name":"noSnap","type":"bytes32","internalType":"euint32"}],"stateMutability":"view"},{"type":"function","name":"getPosition","inputs":[{"name":"marketId","type":"uint256","internalType":"uint256"},{"name":"user","type":"address","internalType":"address"}],"outputs":[{"name":"yes","type":"bytes32","internalType":"euint32"},{"name":"no","type":"bytes32","internalType":"euint32"},{"name":"initialized","type":"bool","internalType":"bool"},{"name":"claimRequested","type":"bool","internalType":"bool"},{"name":"claimed","type":"bool","internalType":"bool"}],"stateMutability":"view"},{"type":"function","name":"marketCount","inputs":[],"outputs":[{"name":"","type":"uint256","internalType":"uint256"}],"stateMutability":"view"},{"type":"function","name":"markets","inputs":[{"name":"","type":"uint256","internalType":"uint256"}],"outputs":[{"name":"question","type":"string","internalType":"string"},{"name":"resolutionTime","type":"uint256","internalType":"uint256"},{"name":"currentPrice","type":"uint32","internalType":"uint32"},{"name":"lastPriceUpdate","type":"uint256","internalType":"uint256"},{"name":"yes_pool","type":"bytes32","internalType":"euint32"},{"name":"no_pool","type":"bytes32","internalType":"euint32"},{"name":"resolved","type":"bool","internalType":"bool"},{"name":"outcome","type":"bool","internalType":"bool"},{"name":"finalYesTotal","type":"uint256","internalType":"uint256"},{"name":"finalNoTotal","type":"uint256","internalType":"uint256"},{"name":"priceUpdatePending","type":"bool","internalType":"bool"},{"name":"yesSnap","type":"bytes32","internalType":"euint32"},{"name":"noSnap","type":"bytes32","internalType":"euint32"}],"stateMutability":"view"},{"type":"function","name":"owner","inputs":[],"outputs":[{"name":"","type":"address","internalType":"address"}],"stateMutability":"view"},{"type":"function","name":"placeBet","inputs":[{"name":"marketId","type":"uint256","internalType":"uint256"},{"name":"encryptedDirection","type":"tuple","internalType":"struct InEbool","components":[{"name":"ctHash","type":"uint256","internalType":"uint256"},{"name":"securityZone","type":"uint8","internalType":"uint8"},{"name":"utype","type":"uint8","internalType":"uint8"},{"name":"signature","type":"bytes","internalType":"bytes"}]},{"name":"encryptedAmount","type":"tuple","internalType":"struct InEuint32","components":[{"name":"ctHash","type":"uint256","internalType":"uint256"},{"name":"securityZone","type":"uint8","internalType":"uint8"},{"name":"utype","type":"uint8","internalType":"uint8"},{"name":"signature","type":"bytes","internalType":"bytes"}]}],"outputs":[],"stateMutability":"payable"},{"type":"function","name":"publishClaim","inputs":[{"name":"marketId","type":"uint256","internalType":"uint256"},{"name":"user","type":"address","internalType":"address"},{"name":"amount","type":"uint32","internalType":"uint32"},{"name":"signature","type":"bytes","internalType":"bytes"}],"outputs":[],"stateMutability":"nonpayable"},{"type":"function","name":"publishPriceUpdate","inputs":[{"name":"marketId","type":"uint256","internalType":"uint256"},{"name":"yesVal","type":"uint32","internalType":"uint32"},{"name":"yesSig","type":"bytes","internalType":"bytes"},{"name":"noVal","type":"uint32","internalType":"uint32"},{"name":"noSig","type":"bytes","internalType":"bytes"}],"outputs":[],"stateMutability":"nonpayable"},{"type":"function","name":"requestClaim","inputs":[{"name":"marketId","type":"uint256","internalType":"uint256"}],"outputs":[],"stateMutability":"nonpayable"},{"type":"function","name":"requestPriceUpdate","inputs":[{"name":"marketId","type":"uint256","internalType":"uint256"}],"outputs":[],"stateMutability":"nonpayable"},{"type":"function","name":"resolve","inputs":[{"name":"marketId","type":"uint256","internalType":"uint256"},{"name":"outcome","type":"bool","internalType":"bool"},{"name":"finalYesTotal","type":"uint256","internalType":"uint256"},{"name":"finalNoTotal","type":"uint256","internalType":"uint256"}],"outputs":[],"stateMutability":"nonpayable"},{"type":"event","name":"BetPlaced","inputs":[{"name":"marketId","type":"uint256","indexed":true,"internalType":"uint256"},{"name":"bettor","type":"address","indexed":true,"internalType":"address"},{"name":"timestamp","type":"uint256","indexed":false,"internalType":"uint256"}],"anonymous":false},{"type":"event","name":"ClaimRequested","inputs":[{"name":"marketId","type":"uint256","indexed":true,"internalType":"uint256"},{"name":"user","type":"address","indexed":true,"internalType":"address"}],"anonymous":false},{"type":"event","name":"Claimed","inputs":[{"name":"marketId","type":"uint256","indexed":true,"internalType":"uint256"},{"name":"user","type":"address","indexed":true,"internalType":"address"},{"name":"amount","type":"uint256","indexed":false,"internalType":"uint256"}],"anonymous":false},{"type":"event","name":"MarketCreated","inputs":[{"name":"marketId","type":"uint256","indexed":true,"internalType":"uint256"},{"name":"question","type":"string","indexed":false,"internalType":"string"},{"name":"resolutionTime","type":"uint256","indexed":false,"internalType":"uint256"}],"anonymous":false},{"type":"event","name":"MarketResolved","inputs":[{"name":"marketId","type":"uint256","indexed":true,"internalType":"uint256"},{"name":"outcome","type":"bool","indexed":false,"internalType":"bool"}],"anonymous":false},{"type":"event","name":"PriceUpdateRequested","inputs":[{"name":"marketId","type":"uint256","indexed":true,"internalType":"uint256"},{"name":"timestamp","type":"uint256","indexed":false,"internalType":"uint256"}],"anonymous":false},{"type":"event","name":"PriceUpdated","inputs":[{"name":"marketId","type":"uint256","indexed":true,"internalType":"uint256"},{"name":"newPrice","type":"uint32","indexed":false,"internalType":"uint32"},{"name":"timestamp","type":"uint256","indexed":false,"internalType":"uint256"}],"anonymous":false},{"type":"error","name":"InvalidEncryptedInput","inputs":[{"name":"got","type":"uint8","internalType":"uint8"},{"name":"expected","type":"uint8","internalType":"uint8"}]},{"type":"error","name":"SecurityZoneOutOfBounds","inputs":[{"name":"value","type":"int32","internalType":"int32"}]}],"bytecode":{"object":"0x60803461016f57600380546001600160a01b03191633179055602090808201906001600160401b03808311828410176101f35760409283525f825282519360808501858110838211176101f35784526003855280850160603682378551156101df575f90528451600110156101df5760049283858701528551600210156101cc576100cc865f60606100ba989901528751968793631888debd60e01b85528780860152601a6024860152608060448601526084850190610207565b83810360031901606485015290610207565b0393818173ea30c4b8b44078bbf8a6ef5b9f1ec1626c7848d996815f895af19182156101c2575f92610173575b5050808355833b1561016f575f936044859287519687938492631974142760e21b8452888401523060248401525af1801561016557610141575b8351612083908161023b8239f35b8211610152575081525f8080610133565b604190634e487b7160e01b5f525260245ffd5b84513d5f823e3d90fd5b5f80fd5b809192503d82116101bb575b601f8101601f19168301848111848210176101a857875282018290031261016f57515f806100f9565b604186634e487b7160e01b5f525260245ffd5b503d61017f565b86513d5f823e3d90fd5b603284634e487b7160e01b5f525260245ffd5b634e487b7160e01b5f52603260045260245ffd5b634e487b7160e01b5f52604160045260245ffd5b9081518082526020808093019301915f5b828110610226575050505090565b83518552938101939281019260010161021856fe6080604090808252600480361015610021575b505050361561001f575f80fd5b005b5f3560e01c9182634635eed1146111a1575081634c7cbff0146111045781635891397c14610df75781637a97111414610b7a578163883c84c1146108765781638da5cb5b14610842578163aad6742c146106d1578163b1283e77146105f7578163d29f541d14610573578163d4c138e7146104b9578163e00b288a1461034b578163eb44fdd3146102a5578163ec97908214610287578163ee53e6a3146100f3575063ee937e82146100d4578080610012565b346100ef575f6003193601126100ef57602090516102588152f35b5f80fd5b9050346100ef5760206003193601126100ef57803590815f525f602052825f20906101216002548410611712565b61013260ff6006840154161561175d565b6009820180549160ff831661024457600384015461025881018091116102185742106101d557836101c8602094889460017fffffffffffffffffffffffffffffffffffffffffffffffffffffffffffffff006101ce967f54cbff3d41e29075aa29e223cfe3e57446792592dabe4111571a1a073d030c2c9a01549384600a880155600b6005880154970196875516179055611e38565b54611e38565b51428152a2005b606490602087519162461bcd60e51b8352820152600860248201527f546f6f20736f6f6e0000000000000000000000000000000000000000000000006044820152fd5b6011827f4e487b71000000000000000000000000000000000000000000000000000000005f525260245ffd5b606490602087519162461bcd60e51b8352820152601660248201527f55706461746520616c72656164792070656e64696e67000000000000000000006044820152fd5b82346100ef575f6003193601126100ef576020906002549051908152f35b82346100ef5760206003193601126100ef5761031291355f525f602052805f2060018101549063ffffffff600282015416600382015460ff60068401548160098601541692600a860154946102fe600b88015497611587565b9880519a8b9a610120808d528c0190611648565b9860208b015289015260608801528181161515608088015260081c16151560a0860152151560c085015260e08401526101008301520390f35b9050346100ef57602091826003193601126100ef57813592835f525f81526006825f20019161037d60ff8454166117a8565b845f5260018252805f20335f528252805f2093600285019283549260ff841615610478576103b160ff8560101c16156117f3565b60ff8460081c16610437575050507fffffffffffffffffffffffffffffffffffffffffffffffffffffffffffff00ff166101001790555460081c60ff1615610425576103fd9054611e38565b33907fb22ad74b516ae77f8ab946c8614cc1dd4c3f078aa69046d69e47ca2bb1d413175f80a3005b6001610432910154611e38565b6103fd565b60649350519162461bcd60e51b8352820152601960248201527f436c61696d20616c726561647920696e2070726f6772657373000000000000006044820152fd5b60649350519162461bcd60e51b8352820152600b60248201527f4e6f20706f736974696f6e0000000000000000000000000000000000000000006044820152fd5b82346100ef5760806003193601126100ef576104d361166d565b6044359063ffffffff821682036100ef5760643567ffffffffffffffff81116100ef57600661050760ff9236908801611393565b959096355f525f602052805f2093600160205273ffffffffffffffffffffffffffffffffffffffff825f2091165f526020525f2092015460081c165f1461055f5761001f936105599154933691611487565b91611976565b61001f936001610559920154933691611487565b82346100ef57806003193601126100ef5760a09161058f61166d565b90355f52600160205273ffffffffffffffffffffffffffffffffffffffff825f2091165f5260205260ff815f20805492600260018301549201549181519485526020850152828216151590840152818160081c161515606084015260101c1615156080820152f35b9050346100ef5760206003193601126100ef5780355f525f602052815f209061061f82611587565b90600183015492600281015463ffffffff169160038201549082015460058301546006840154600785015491600886015493600987015460ff1695600a88015497600b0154988c519c8d9c8d9c8d6101a0908181520161067e91611648565b9c602001528c015260608b015260808a015260a089015260ff8116151560c089015260081c60ff16151560e088015261010087015261012086015215156101408501526101608401526101808301520390f35b9050346100ef5760806003193601126100ef57803591602435918215158093036100ef5761071873ffffffffffffffffffffffffffffffffffffffff600354163314611878565b835f525f602052815f20906107306002548610611712565b600682019081549060ff82166107ff57600184015442106107bc57509160209391600186947fffffffffffffffffffffffffffffffffffffffffffffffffffffffffffff000061ff007f4927fe38919783250023d27e65a3e56b6b5c3e49364e51674a41ef08d62460d99960081b169116171790556044356007820155600860643591015551908152a2005b606490602086519162461bcd60e51b8352820152601260248201527f4e6f7420796574207265736f6c7661626c6500000000000000000000000000006044820152fd5b606490602086519162461bcd60e51b8352820152601060248201527f416c7265616479207265736f6c766564000000000000000000000000000000006044820152fd5b82346100ef575f6003193601126100ef5760209073ffffffffffffffffffffffffffffffffffffffff600354169051908152f35b82346100ef57806003193601126100ef5767ffffffffffffffff9082358281116100ef576108a79036908501611393565b6108cd73ffffffffffffffffffffffffffffffffffffffff600395939554163314611878565b600254937fffffffffffffffffffffffffffffffffffffffffffffffffffffffffffffffff92838614610b4e57600190818701600255865f526020975f8952865f20918511610b22579087949392916109268254611536565b601f8111610acd575b505f96601f8611600114610a3057606094936109fa601f19946109f4601f958a95867f2d1e9ad45dbe8e898e0374deebf2a661b2ae7c1855d2a29507d584c35d287c759d9e5f91610a25575b5087871b918860031b1c19161783555b6109976024354261183e565b948301948555600283016101f47fffffffffffffffffffffffffffffffffffffffffffffffffffffffff000000008254161790554260038401556109d9611fac565b90830190815560056109e9611fac565b930192835554611a0c565b54611a0c565b5489519687958b8752818c880152878701375f8683870101528b85015201168101030190a251908152f35b90508a01355f61097b565b90919293949596601f19871691845f528b5f20925f5b8d828210610ab65750508897956109f4601f1996601f968b9660609b967f2d1e9ad45dbe8e898e0374deebf2a661b2ae7c1855d2a29507d584c35d287c759e6109fa9710610a9e575b5050508486811b01835561098b565b60f88960031b161c19908b01351690555f8080610a8f565b8985013586558d9b50948801949384019301610a46565b90918093949596505f52895f20601f870160051c8101918b8810610b18575b90601f8b989796959493920160051c01905b818110610b0b575061092f565b5f81558a97508401610afe565b9091508190610aec565b6041907f4e487b71000000000000000000000000000000000000000000000000000000005f525260245ffd5b6011877f4e487b71000000000000000000000000000000000000000000000000000000005f525260245ffd5b82346100ef576020806003193601126100ef57823591825f525f8252805f2093600685015494610bac60ff87166117a8565b845f5260018452825f20335f528452825f2090600282019182549760ff8960081c1615610db557610c0a60ff63ffffffff92610bed828d60101c16156117f3565b60081c16928315610da857610c0290546118c3565b919091611690565b16908115610d665715610d5857610c316007830154925b600860078201549101549061183e565b80820291820403610d2c57633b9aca0090818102918183041490151715610d2c57610c8162010000927fffffffffffffffffffffffffffffffffffffffffffffffffffffffffff0000ff926116db565b97161790555f80808088335af13d15610d27573d610c9e8161146b565b90610cab8551928361143a565b81525f853d92013e5b15610ce65750907f4ec90e965519d92681267467f775ada5bd214aa92c0dc93d90a5e880ce9ed02691519384523393a3005b82606492519162461bcd60e51b8352820152600f60248201527f5472616e73666572206661696c656400000000000000000000000000000000006044820152fd5b610cb4565b6011847f4e487b71000000000000000000000000000000000000000000000000000000005f525260245ffd5b610c31600883015492610c21565b6064858888519162461bcd60e51b8352820152601360248201527f4e6f2077696e6e696e6720706f736974696f6e000000000000000000000000006044820152fd5b6001610c029101546118c3565b6064858888519162461bcd60e51b8352820152601c60248201527f4d7573742063616c6c2072657175657374436c61696d206669727374000000006044820152fd5b8260606003193601126100ef578135906024359267ffffffffffffffff938481116100ef57610e2990369083016114bd565b936044359081116100ef57610e4190369083016114bd565b93835f526020945f8652835f20610e5b6002548710611712565b60ff92610e6e846006840154161561175d565b34156110c2578386820151168061108d5750610ebd90610e8c611e9a565b508051906060868b8301511691015190885192610ea8846113c1565b83528a8301525f888301526060820152611ebe565b91838682015116858103611058575092610fcc8593610fa3610ff3946109f46005610f6b610f448f89907f87b9df6fa7123c2e6044c3a3a37b4b0662c188d7a58ef86ee55067c46e4613ad9f9e8f610ff99f610f17611e9a565b506060815195858301511691015193825195610f32876113c1565b86528501528301526060820152611ebe565b610f4d87611a0c565b610f5681611a0c565b610f628b548289611a6c565b968b5490611a6c565b98610f7586611a0c565b610f7e8a611a0c565b830192610f8c868554611cda565b84550191610f9b898454611cda565b835554611a0c565b885f5260018a52865f20335f528a52865f2092600284019081541615611003575b508254611cda565b8155610fdd60018201938454611cda565b8355610fe98154611a0c565b610ff38354611a0c565b54611dd8565b51924284523393a3005b61100b611fac565b8455611029611018611fac565b600186019081556109f48654611a0c565b60017fffffffffffffffffffffffffffffffffffffffffffffffffffffffffffffff008254161790558a610fc4565b604490868851917f67cf3071000000000000000000000000000000000000000000000000000000008352818301526024820152fd5b856044918851917f67cf30710000000000000000000000000000000000000000000000000000000083528201525f6024820152fd5b6064858988519162461bcd60e51b8352820152600b60248201527f4e6f204554482073656e740000000000000000000000000000000000000000006044820152fd5b82346100ef5760a06003193601126100ef5763ffffffff60243581811681036100ef5767ffffffffffffffff936044358581116100ef576111489036908301611393565b929060643594851685036100ef576084359687116100ef5761119761055994600b9361055961117d61001f9b36908901611393565b9a9097355f525f6020525f2094600a860154933691611487565b0154933691611487565b9083346100ef5760206003193601126100ef57813591825f525f602052815f2093600985019081549060ff82161561135257506111e1600a8701546118c3565b90936112026111f3600b8a01546118c3565b8491949161134a575b50611690565b63ffffffff80809616921682018581116102185785169182611284575b505050946002917fffffffffffffffffffffffffffffffffffffffffffffffffffffffffffffff007fb27931a1b29225fcff61e4353887bad8b1b1d728f504184df69642fa0749378496974260038501551690550154168151908152426020820152a2005b6103e8029085821691820361131e57507fb27931a1b29225fcff61e4353887bad8b1b1d728f504184df69642fa07493784969792856112e7600296947fffffffffffffffffffffffffffffffffffffffffffffffffffffffffffffff00946116db565b16858501907fffffffffffffffffffffffffffffffffffffffffffffffffffffffff0000000082541617905592979682945061121f565b6011907f4e487b71000000000000000000000000000000000000000000000000000000005f525260245ffd5b90508a6111fc565b8060208562461bcd60e51b60649452820152601160248201527f4e6f2070656e64696e67207570646174650000000000000000000000000000006044820152fd5b9181601f840112156100ef5782359167ffffffffffffffff83116100ef57602083818601950101116100ef57565b6080810190811067ffffffffffffffff8211176113dd57604052565b7f4e487b71000000000000000000000000000000000000000000000000000000005f52604160045260245ffd5b67ffffffffffffffff81116113dd57604052565b6020810190811067ffffffffffffffff8211176113dd57604052565b90601f601f19910116810190811067ffffffffffffffff8211176113dd57604052565b359060ff821682036100ef57565b67ffffffffffffffff81116113dd57601f01601f191660200190565b9291926114938261146b565b916114a1604051938461143a565b8294818452818301116100ef578281602093845f960137010152565b91906080838203126100ef57604051906114d6826113c1565b8193803583526114e86020820161145d565b60208401526114f96040820161145d565b604084015260608101359067ffffffffffffffff82116100ef570181601f820112156100ef5760609181602061153193359101611487565b910152565b90600182811c9216801561157d575b602083101461155057565b7f4e487b71000000000000000000000000000000000000000000000000000000005f52602260045260245ffd5b91607f1691611545565b9060405191825f825461159981611536565b908184526020946001916001811690815f1461160757506001146115c9575b5050506115c79250038361143a565b565b5f90815285812095935091905b8183106115ef5750506115c793508201015f80806115b8565b855488840185015294850194879450918301916115d6565b9150506115c79593507fffffffffffffffffffffffffffffffffffffffffffffffffffffffffffffff0091501682840152151560051b8201015f80806115b8565b90601f19601f602080948051918291828752018686015e5f8582860101520116010190565b6024359073ffffffffffffffffffffffffffffffffffffffff821682036100ef57565b1561169757565b606460405162461bcd60e51b815260206004820152601860248201527f44656372797074696f6e206e6f742072656164792079657400000000000000006044820152fd5b81156116e5570490565b7f4e487b71000000000000000000000000000000000000000000000000000000005f52601260045260245ffd5b1561171957565b606460405162461bcd60e51b815260206004820152600e60248201527f496e76616c6964206d61726b65740000000000000000000000000000000000006044820152fd5b1561176457565b606460405162461bcd60e51b815260206004820152600f60248201527f4d61726b6574207265736f6c76656400000000000000000000000000000000006044820152fd5b156117af57565b606460405162461bcd60e51b815260206004820152600c60248201527f4e6f74207265736f6c76656400000000000000000000000000000000000000006044820152fd5b156117fa57565b606460405162461bcd60e51b815260206004820152600f60248201527f416c726561647920636c61696d656400000000000000000000000000000000006044820152fd5b9190820180921161184b57565b7f4e487b71000000000000000000000000000000000000000000000000000000005f52601160045260245ffd5b1561187f57565b606460405162461bcd60e51b815260206004820152600960248201527f4e6f74206f776e657200000000000000000000000000000000000000000000006044820152fd5b9060408051927f458693c90000000000000000000000000000000000000000000000000000000084526004840152808360248173ea30c4b8b44078bbf8a6ef5b9f1ec1626c7848d95afa92831561196c575f915f94611929575b505063ffffffff169190565b8194508092503d8311611965575b611941818361143a565b810103126100ef57602082519201519182151583036100ef5763ffffffff5f61191d565b503d611937565b50513d5f823e3d90fd5b73ea30c4b8b44078bbf8a6ef5b9f1ec1626c7848d9803b156100ef575f928363ffffffff936119e7604051978896879586947f186837010000000000000000000000000000000000000000000000000000000086526004860152166024840152606060448401526064830190611648565b03925af18015611a01576119f85750565b6115c79061140a565b6040513d5f823e3d90fd5b73ea30c4b8b44078bbf8a6ef5b9f1ec1626c7848d9803b156100ef576040517f65d0509c00000000000000000000000000000000000000000000000000000000815260048101929092523060248301525f908290818381604481016119e7565b91908215611bd7575b8015611bc9575b8115611bb9575b60405192611a90846113c1565b600384526060366020860137611aa584611f8f565b52611aaf83611f9c565b52815160021015611b8c5760608201526020611b2060405192611ad18461141e565b5f8452611b3260405194859384937f1888debd00000000000000000000000000000000000000000000000000000000855260048086015260046024860152608060448601526084850190611f5c565b90600319848303016064850152611f5c565b03815f73ea30c4b8b44078bbf8a6ef5b9f1ec1626c7848d95af1908115611a01575f91611b5d575090565b90506020813d602011611b84575b81611b786020938361143a565b810103126100ef575190565b3d9150611b6b565b7f4e487b71000000000000000000000000000000000000000000000000000000005f52603260045260245ffd5b9050611bc3611fac565b90611a83565b50611bd2611fac565b611a7c565b9150604051611be58161141e565b5f815260405190611bf5826113c1565b6003825260603660208401375f611c0b83611f8f565b525f611c1683611f9c565b52815160021015611b8c57611b206020915f6060850152611c7960405194859384937f1888debd0000000000000000000000000000000000000000000000000000000085525f6004860152601a6024860152608060448601526084850190611f5c565b03815f73ea30c4b8b44078bbf8a6ef5b9f1ec1626c7848d95af1908115611a01575f91611ca8575b5091611a75565b90506020813d602011611cd2575b81611cc36020938361143a565b810103126100ef57515f611ca1565b3d9150611cb6565b8015611dca575b8115611dba575b6040918251916060830183811067ffffffffffffffff8211176113dd5784526002835283366020850137611d1b83611f8f565b52611d2582611f9c565b526020611b20835192611d378461141e565b5f8452611d85855194859384937f1888debd00000000000000000000000000000000000000000000000000000000855260048086015260086024860152608060448601526084850190611f5c565b03815f73ea30c4b8b44078bbf8a6ef5b9f1ec1626c7848d95af1918215611db157505f91611b5d575090565b513d5f823e3d90fd5b9050611dc4611fac565b90611ce8565b50611dd3611fac565b611ce1565b73ea30c4b8b44078bbf8a6ef5b9f1ec1626c7848d9803b156100ef576040517f65d0509c00000000000000000000000000000000000000000000000000000000815260048101929092523360248301525f908290818381604481016119e7565b73ea30c4b8b44078bbf8a6ef5b9f1ec1626c7848d990813b156100ef575f916024839260405194859384927f34ef1e5a00000000000000000000000000000000000000000000000000000000845260048401525af18015611a01576119f85750565b60405190611ea7826113c1565b606080835f81525f60208201525f60408201520152565b60206060611f2b9260405193849283927f27f9c762000000000000000000000000000000000000000000000000000000008452604060048501528051604485015260ff8682015116606485015260ff60408201511660848501520151608060a484015260c4830190611648565b33602483015203815f73ea30c4b8b44078bbf8a6ef5b9f1ec1626c7848d95af1908115611a01575f91611b5d575090565b9081518082526020808093019301915f5b828110611f7b575050505090565b835185529381019392810192600101611f6d565b805115611b8c5760200190565b805160011015611b8c5760400190565b604051611fb88161141e565b5f815260405190611fc8826113c1565b6003825260603660208401375f611fde83611f8f565b526004611fea83611f9c565b52815160021015611b8c57611b206020915f6060850152611b3260405194859384937f1888debd000000000000000000000000000000000000000000000000000000008552600480860152601a6024860152608060448601526084850190611f5c56fea26469706673582212205c49c9cb9be4c743411fdee0f713f728f5010abf42317c91e29490ce6e24171e64736f6c63430008190033","linkReferences":{}},"methodIdentifiers":{"PRICE_UPDATE_INTERVAL()":"ee937e82","createMarket(string,uint256)":"883c84c1","finalizeClaim(uint256)":"7a971114","finalizePrice(uint256)":"4635eed1","getMarket(uint256)":"eb44fdd3","getPosition(uint256,address)":"d29f541d","marketCount()":"ec979082","markets(uint256)":"b1283e77","owner()":"8da5cb5b","placeBet(uint256,(uint256,uint8,uint8,bytes),(uint256,uint8,uint8,bytes))":"5891397c","publishClaim(uint256,address,uint32,bytes)":"d4c138e7","publishPriceUpdate(uint256,uint32,bytes,uint32,bytes)":"4c7cbff0","requestClaim(uint256)":"e00b288a","requestPriceUpdate(uint256)":"ee53e6a3","resolve(uint256,bool,uint256,uint256)":"aad6742c"},"id":24}