{"abi":[{"type":"constructor","inputs":[],"stateMutability":"nonpayable"},{"type":"receive","stateMutability":"payable"},{"type":"function","name":"PRICE_UPDATE_INTERVAL","inputs":[],"outputs":[{"name":"","type":"uint256","internalType":"uint256"}],"stateMutability":"view"},{"type":"function","name":"createMarket","inputs":[{"name":"question","type":"string","internalType":"string"},{"name":"duration","type":"uint256","internalType":"uint256"}],"outputs":[{"name":"marketId","type":"uint256","internalType":"uint256"}],"stateMutability":"nonpayable"},{"type":"function","name":"finalizeClaim","inputs":[{"name":"marketId","type":"uint256","internalType":"uint256"}],"outputs":[],"stateMutability":"nonpayable"},{"type":"function","name":"finalizePrice","inputs":[{"name":"marketId","type":"uint256","internalType":"uint256"}],"outputs":[],"stateMutability":"nonpayable"},{"type":"function","name":"getMarket","inputs":[{"name":"marketId","type":"uint256","internalType":"uint256"}],"outputs":[{"name":"question","type":"string","internalType":"string"},{"name":"resolutionTime","type":"uint256","internalType":"uint256"},{"name":"currentPrice","type":"uint32","internalType":"uint32"},{"name":"lastPriceUpdate","type":"uint256","internalType":"uint256"},{"name":"resolved","type":"bool","internalType":"bool"},{"name":"outcome","type":"bool","internalType":"bool"},{"name":"priceUpdatePending","type":"bool","internalType":"bool"},{"name":"yesSnap","type":"bytes32","internalType":"euint64"},{"name":"noSnap","type":"bytes32","internalType":"euint64"}],"stateMutability":"view"},{"type":"function","name":"getPosition","inputs":[{"name":"marketId","type":"uint256","internalType":"uint256"},{"name":"user","type":"address","internalType":"address"}],"outputs":[{"name":"yes","type":"bytes32","internalType":"euint64"},{"name":"no","type":"bytes32","internalType":"euint64"},{"name":"initialized","type":"bool","internalType":"bool"},{"name":"claimRequested","type":"bool","internalType":"bool"},{"name":"claimed","type":"bool","internalType":"bool"}],"stateMutability":"view"},{"type":"function","name":"marketCount","inputs":[],"outputs":[{"name":"","type":"uint256","internalType":"uint256"}],"stateMutability":"view"},{"type":"function","name":"markets","inputs":[{"name":"","type":"uint256","internalType":"uint256"}],"outputs":[{"name":"question","type":"string","internalType":"string"},{"name":"resolutionTime","type":"uint256","internalType":"uint256"},{"name":"currentPrice","type":"uint32","internalType":"uint32"},{"name":"lastPriceUpdate","type":"uint256","internalType":"uint256"},{"name":"yes_pool","type":"bytes32","internalType":"euint64"},{"name":"no_pool","type":"bytes32","internalType":"euint64"},{"name":"resolved","type":"bool","internalType":"bool"},{"name":"outcome","type":"bool","internalType":"bool"},{"name":"finalYesTotal","type":"uint256","internalType":"uint256"},{"name":"finalNoTotal","type":"uint256","internalType":"uint256"},{"name":"priceUpdatePending","type":"bool","internalType":"bool"},{"name":"yesSnap","type":"bytes32","internalType":"euint64"},{"name":"noSnap","type":"bytes32","internalType":"euint64"}],"stateMutability":"view"},{"type":"function","name":"owner","inputs":[],"outputs":[{"name":"","type":"address","internalType":"address"}],"stateMutability":"view"},{"type":"function","name":"placeBet","inputs":[{"name":"marketId","type":"uint256","internalType":"uint256"},{"name":"encryptedDirection","type":"tuple","internalType":"struct InEbool","components":[{"name":"ctHash","type":"uint256","internalType":"uint256"},{"name":"securityZone","type":"uint8","internalType":"uint8"},{"name":"utype","type":"uint8","internalType":"uint8"},{"name":"signature","type":"bytes","internalType":"bytes"}]},{"name":"encryptedAmount","type":"tuple","internalType":"struct InEuint64","components":[{"name":"ctHash","type":"uint256","internalType":"uint256"},{"name":"securityZone","type":"uint8","internalType":"uint8"},{"name":"utype","type":"uint8","internalType":"uint8"},{"name":"signature","type":"bytes","internalType":"bytes"}]}],"outputs":[],"stateMutability":"payable"},{"type":"function","name":"publishClaim","inputs":[{"name":"marketId","type":"uint256","internalType":"uint256"},{"name":"user","type":"address","internalType":"address"},{"name":"amount","type":"uint64","internalType":"uint64"},{"name":"signature","type":"bytes","internalType":"bytes"}],"outputs":[],"stateMutability":"nonpayable"},{"type":"function","name":"publishPriceUpdate","inputs":[{"name":"marketId","type":"uint256","internalType":"uint256"},{"name":"yesVal","type":"uint64","internalType":"uint64"},{"name":"yesSig","type":"bytes","internalType":"bytes"},{"name":"noVal","type":"uint64","internalType":"uint64"},{"name":"noSig","type":"bytes","internalType":"bytes"}],"outputs":[],"stateMutability":"nonpayable"},{"type":"function","name":"requestClaim","inputs":[{"name":"marketId","type":"uint256","internalType":"uint256"}],"outputs":[],"stateMutability":"nonpayable"},{"type":"function","name":"requestPriceUpdate","inputs":[{"name":"marketId","type":"uint256","internalType":"uint256"}],"outputs":[],"stateMutability":"nonpayable"},{"type":"function","name":"resolve","inputs":[{"name":"marketId","type":"uint256","internalType":"uint256"},{"name":"outcome","type":"bool","internalType":"bool"},{"name":"finalYesTotal","type":"uint256","internalType":"uint256"},{"name":"finalNoTotal","type":"uint256","internalType":"uint256"}],"outputs":[],"stateMutability":"nonpayable"},{"type":"event","name":"BetPlaced","inputs":[{"name":"marketId","type":"uint256","indexed":true,"internalType":"uint256"},{"name":"user","type":"address","indexed":true,"internalType":"address"},{"name":"timestamp","type":"uint256","indexed":false,"internalType":"uint256"}],"anonymous":false},{"type":"event","name":"ClaimRequested","inputs":[{"name":"marketId","type":"uint256","indexed":true,"internalType":"uint256"},{"name":"user","type":"address","indexed":true,"internalType":"address"}],"anonymous":false},{"type":"event","name":"Claimed","inputs":[{"name":"marketId","type":"uint256","indexed":true,"internalType":"uint256"},{"name":"user","type":"address","indexed":true,"internalType":"address"},{"name":"amount","type":"uint256","indexed":false,"internalType":"uint256"}],"anonymous":false},{"type":"event","name":"MarketCreated","inputs":[{"name":"marketId","type":"uint256","indexed":true,"internalType":"uint256"},{"name":"question","type":"string","indexed":false,"internalType":"string"},{"name":"resolutionTime","type":"uint256","indexed":false,"internalType":"uint256"}],"anonymous":false},{"type":"event","name":"MarketResolved","inputs":[{"name":"marketId","type":"uint256","indexed":true,"internalType":"uint256"},{"name":"outcome","type":"bool","indexed":false,"internalType":"bool"}],"anonymous":false},{"type":"event","name":"PriceUpdateRequested","inputs":[{"name":"marketId","type":"uint256","indexed":true,"internalType":"uint256"},{"name":"timestamp","type":"uint256","indexed":false,"internalType":"uint256"}],"anonymous":false},{"type":"event","name":"PriceUpdated","inputs":[{"name":"marketId","type":"uint256","indexed":true,"internalType":"uint256"},{"name":"newPrice","type":"uint32","indexed":false,"internalType":"uint32"},{"name":"timestamp","type":"uint256","indexed":false,"internalType":"uint256"}],"anonymous":false},{"type":"error","name":"InvalidEncryptedInput","inputs":[{"name":"got","type":"uint8","internalType":"uint8"},{"name":"expected","type":"uint8","internalType":"uint8"}]},{"type":"error","name":"SecurityZoneOutOfBounds","inputs":[{"name":"value","type":"int32","internalType":"int32"}]}],"bytecode":{"object":"0x60803461017057600380546001600160a01b03191633179055602081810191906001600160401b0390818411838510176101525760409384525f835283519260808401848110848211176101525785526003845281840160603682378451156101bb575f90528351600110156101bb576005858501528351600210156101bb576100cc845f60606100ba9701528651958693631888debd60e01b855260056004860152601a60248601526080604486015260848501906101cf565b838103600319016064850152906101cf565b0392818173ea30c4b8b44078bbf8a6ef5b9f1ec1626c7848d995815f885af19182156101b1575f92610174575b505080600455823b15610170575f926044849286519586938492631974142760e21b845260048401523060248401525af1801561016657610143575b825161211b90816102038239f35b81116101525781525f80610135565b634e487b7160e01b5f52604160045260245ffd5b83513d5f823e3d90fd5b5f80fd5b809192503d82116101aa575b601f8101601f19168301908482118483101761015257839187528101031261017057515f806100f9565b503d610180565b85513d5f823e3d90fd5b634e487b7160e01b5f52603260045260245ffd5b9081518082526020808093019301915f5b8281106101ee575050505090565b8351855293810193928101926001016101e056fe6080604090808252600480361015610021575b505050361561001f575f80fd5b005b5f3560e01c9182634635eed114611216575081635891397c14610f085781636910108914610e6e5781636e4df86814610db75781637a97111414610afc578163883c84c1146107f85781638da5cb5b146107c4578163aad6742c14610653578163b1283e7714610579578163d29f541d146104f5578163e00b288a1461034b578163eb44fdd3146102a5578163ec97908214610287578163ee53e6a3146100f3575063ee937e82146100d4578080610012565b346100ef575f6003193601126100ef57602090516102588152f35b5f80fd5b9050346100ef5760206003193601126100ef57803590815f525f602052825f209061012160025484106117d1565b61013260ff6006840154161561181c565b6009820180549160ff831661024457600384015461025881018091116102185742106101d557836101c8602094889460017fffffffffffffffffffffffffffffffffffffffffffffffffffffffffffffff006101ce967f54cbff3d41e29075aa29e223cfe3e57446792592dabe4111571a1a073d030c2c9a01549384600a880155600b6005880154970196875516179055611e7c565b54611e7c565b51428152a2005b606490602087519162461bcd60e51b8352820152600860248201527f546f6f20736f6f6e0000000000000000000000000000000000000000000000006044820152fd5b6011827f4e487b71000000000000000000000000000000000000000000000000000000005f525260245ffd5b606490602087519162461bcd60e51b8352820152600760248201527f50656e64696e67000000000000000000000000000000000000000000000000006044820152fd5b82346100ef575f6003193601126100ef576020906002549051908152f35b82346100ef5760206003193601126100ef5761031291355f525f602052805f2060018101549063ffffffff600282015416600382015460ff60068401548160098601541692600a860154946102fe600b8801549761162f565b9880519a8b9a610120808d528c01906116f0565b9860208b015289015260608801528181161515608088015260081c16151560a0860152151560c085015260e08401526101008301520390f35b9050346100ef57602091826003193601126100ef57813592835f525f81526006825f20019161037d60ff845416611867565b845f5260018252805f20335f528252805f2093600285019283549260ff8416156104b45760ff8460101c166104735760ff8460081c16610432575050507fffffffffffffffffffffffffffffffffffffffffffffffffffffffffffff00ff166101001790555460081c60ff1615610420576103f89054611e7c565b33907fb22ad74b516ae77f8ab946c8614cc1dd4c3f078aa69046d69e47ca2bb1d413175f80a3005b600161042d910154611e7c565b6103f8565b60649350519162461bcd60e51b8352820152600b60248201527f496e2070726f67726573730000000000000000000000000000000000000000006044820152fd5b60649350519162461bcd60e51b8352820152600f60248201527f416c726561647920636c61696d656400000000000000000000000000000000006044820152fd5b60649350519162461bcd60e51b8352820152600b60248201527f4e6f20706f736974696f6e0000000000000000000000000000000000000000006044820152fd5b82346100ef57806003193601126100ef5760a0916105116115bb565b90355f52600160205273ffffffffffffffffffffffffffffffffffffffff825f2091165f5260205260ff815f20805492600260018301549201549181519485526020850152828216151590840152818160081c161515606084015260101c1615156080820152f35b9050346100ef5760206003193601126100ef5780355f525f602052815f20906105a18261162f565b90600183015492600281015463ffffffff169160038201549082015460058301546006840154600785015491600886015493600987015460ff1695600a88015497600b0154988c519c8d9c8d9c8d6101a09081815201610600916116f0565b9c602001528c015260608b015260808a015260a089015260ff8116151560c089015260081c60ff16151560e088015261010087015261012086015215156101408501526101608401526101808301520390f35b9050346100ef5760806003193601126100ef57803591602435918215158093036100ef5761069a73ffffffffffffffffffffffffffffffffffffffff6003541633146118b2565b835f525f602052815f20906106b260025486106117d1565b600682019081549060ff8216610781576001840154421061073e57509160209391600186947fffffffffffffffffffffffffffffffffffffffffffffffffffffffffffff000061ff007f4927fe38919783250023d27e65a3e56b6b5c3e49364e51674a41ef08d62460d99960081b169116171790556044356007820155600860643591015551908152a2005b606490602086519162461bcd60e51b8352820152601260248201527f4e6f7420796574207265736f6c7661626c6500000000000000000000000000006044820152fd5b606490602086519162461bcd60e51b8352820152601060248201527f416c7265616479207265736f6c766564000000000000000000000000000000006044820152fd5b82346100ef575f6003193601126100ef5760209073ffffffffffffffffffffffffffffffffffffffff600354169051908152f35b82346100ef57806003193601126100ef5767ffffffffffffffff9082358281116100ef57610829903690850161158d565b61084f73ffffffffffffffffffffffffffffffffffffffff6003959395541633146118b2565b600254937fffffffffffffffffffffffffffffffffffffffffffffffffffffffffffffffff92838614610ad057600190818701600255865f526020975f8952865f20918511610aa4579087949392916108a882546115de565b601f8111610a4f575b505f96601f86116001146109b2576060949361097c601f1994610976601f958a95867f2d1e9ad45dbe8e898e0374deebf2a661b2ae7c1855d2a29507d584c35d287c759d9e5f916109a7575b5087871b918860031b1c19161783555b61091960243542611760565b948301948555600283016101f47fffffffffffffffffffffffffffffffffffffffffffffffffffffffff0000000082541617905542600384015561095b6120b0565b908301908155600561096b6120b0565b9301928355546119b8565b546119b8565b5489519687958b8752818c880152878701375f8683870101528b85015201168101030190a251908152f35b90508a01355f6108fd565b90919293949596601f19871691845f528b5f20925f5b8d828210610a38575050889795610976601f1996601f968b9660609b967f2d1e9ad45dbe8e898e0374deebf2a661b2ae7c1855d2a29507d584c35d287c759e61097c9710610a20575b5050508486811b01835561090d565b60f88960031b161c19908b01351690555f8080610a11565b8985013586558d9b509488019493840193016109c8565b90918093949596505f52895f20601f870160051c8101918b8810610a9a575b90601f8b989796959493920160051c01905b818110610a8d57506108b1565b5f81558a97508401610a80565b9091508190610a6e565b6041907f4e487b71000000000000000000000000000000000000000000000000000000005f525260245ffd5b6011877f4e487b71000000000000000000000000000000000000000000000000000000005f525260245ffd5b82346100ef576020806003193601126100ef57823591825f525f8252805f2093600685015494610b2e60ff8716611867565b845f5260018452825f20335f528452825f2090600282019182549760ff8960081c1615610d755760ff8960101c16610d3357610b8c610b8460ff67ffffffffffffffff9360081c1693845f14610d2a57546118fd565b919091611715565b16908115610ce85715610cda57610bb36007830154925b6008600782015491015490611760565b80820291820403610cae57633b9aca0090818102918183041490151715610cae57610c0362010000927fffffffffffffffffffffffffffffffffffffffffffffffffffffffffff0000ff9261179a565b97161790555f80808088335af13d15610ca9573d610c20816114c2565b90610c2d85519283611491565b81525f853d92013e5b15610c685750907f4ec90e965519d92681267467f775ada5bd214aa92c0dc93d90a5e880ce9ed02691519384523393a3005b82606492519162461bcd60e51b8352820152600660248201527f4661696c656400000000000000000000000000000000000000000000000000006044820152fd5b610c36565b6011847f4e487b71000000000000000000000000000000000000000000000000000000005f525260245ffd5b610bb3600883015492610ba3565b6064858888519162461bcd60e51b8352820152600e60248201527f4e6f2077696e6e696e6720706f730000000000000000000000000000000000006044820152fd5b600101546118fd565b6064858888519162461bcd60e51b8352820152600760248201527f436c61696d6564000000000000000000000000000000000000000000000000006044820152fd5b6064858888519162461bcd60e51b8352820152600d60248201527f52657175657374206669727374000000000000000000000000000000000000006044820152fd5b82346100ef5760806003193601126100ef57610dd16115bb565b6044359067ffffffffffffffff80831683036100ef576064359081116100ef576006610e0260ff923690880161158d565b959096355f525f602052805f2093600160205273ffffffffffffffffffffffffffffffffffffffff825f2091165f526020525f2092015460081c165f14610e5a5761001f93610e5491549336916114de565b91611e07565b61001f936001610e549201549336916114de565b82346100ef5760a06003193601126100ef5760243567ffffffffffffffff9283821682036100ef576044358481116100ef57610ead903690830161158d565b9190926064359386851685036100ef576084359687116100ef57610efe610e5494600b93610e54610ee461001f9b3690890161158d565b9a9097355f525f6020525f2094600a8601549336916114de565b01549336916114de565b8260606003193601126100ef5781356024359167ffffffffffffffff928381116100ef57610f399036908601611514565b926044359081116100ef57610f519036908601611514565b92825f526020935f8552825f20610f6b60025486106117d1565b60ff92610f7e846006840154161561181c565b34156111d4578385820151168061119f5750610fcd90610f9c611ede565b508051906060868a8301511691015190875192610fb884611418565b8352898301525f878301526060820152611f02565b91838582015116600581036111695750926110dd8798936110b461110494610976600561107c611055887f87b9df6fa7123c2e6044c3a3a37b4b0662c188d7a58ef86ee55067c46e4613ad9e9f848f61110a9f611028611ede565b50606081519585830151169101519382519561104387611418565b86528501528301526060820152611f02565b61105e876119b8565b611067816119b8565b6110738b548289611a39565b968b5490611a39565b98611086866119b8565b61108f8a6119b8565b83019261109d868554611ca8565b845501916110ac898454611ca8565b8355546119b8565b885f5260018a52865f20335f528a52865f2092600284019081541615611114575b508254611ca8565b81556110ee60018201938454611ca8565b83556110fa81546119b8565b61110483546119b8565b54611da7565b51924284523393a3005b61111c612026565b845561113a611129612026565b6001860190815561097686546119b8565b60017fffffffffffffffffffffffffffffffffffffffffffffffffffffffffffffff008254161790558a6110d5565b886044918751917f67cf307100000000000000000000000000000000000000000000000000000000835282015260056024820152fd5b886044918751917f67cf30710000000000000000000000000000000000000000000000000000000083528201525f6024820152fd5b6064888887519162461bcd60e51b8352820152600b60248201527f4e6f204554482073656e740000000000000000000000000000000000000000006044820152fd5b8390346100ef5760206003193601126100ef57823592835f525f602052825f2091600983019182549160ff8316156113d8575061128e611259600a8601546118fd565b919061127a61126b600b8901546118fd565b859195916113d0575b50611715565b67ffffffffffffffff809116921682611760565b91826112fd575b877fb27931a1b29225fcff61e4353887bad8b1b1d728f504184df69642fa074937848863ffffffff60028a8a7fffffffffffffffffffffffffffffffffffffffffffffffffffffffffffffff008b4260038501551690550154168151908152426020820152a2005b6103e8918281029281840414901517156113a45750927fffffffffffffffffffffffffffffffffffffffffffffffffffffffffffffff0060029363ffffffff61136a7fb27931a1b29225fcff61e4353887bad8b1b1d728f504184df69642fa07493784999895829861179a565b16858501907fffffffffffffffffffffffffffffffffffffffffffffffffffffffff00000000825416179055935082959650819450611295565b6011907f4e487b71000000000000000000000000000000000000000000000000000000005f525260245ffd5b90508b611274565b602060649262461bcd60e51b8352820152600a60248201527f4e6f2070656e64696e67000000000000000000000000000000000000000000006044820152fd5b6080810190811067ffffffffffffffff82111761143457604052565b7f4e487b71000000000000000000000000000000000000000000000000000000005f52604160045260245ffd5b67ffffffffffffffff811161143457604052565b6020810190811067ffffffffffffffff82111761143457604052565b90601f601f19910116810190811067ffffffffffffffff82111761143457604052565b359060ff821682036100ef57565b67ffffffffffffffff811161143457601f01601f191660200190565b9291926114ea826114c2565b916114f86040519384611491565b8294818452818301116100ef578281602093845f960137010152565b91906080838203126100ef576040519061152d82611418565b81938035835261153f602082016114b4565b6020840152611550604082016114b4565b604084015260608101359067ffffffffffffffff82116100ef570181601f820112156100ef57606091816020611588933591016114de565b910152565b9181601f840112156100ef5782359167ffffffffffffffff83116100ef57602083818601950101116100ef57565b6024359073ffffffffffffffffffffffffffffffffffffffff821682036100ef57565b90600182811c92168015611625575b60208310146115f857565b7f4e487b71000000000000000000000000000000000000000000000000000000005f52602260045260245ffd5b91607f16916115ed565b9060405191825f8254611641816115de565b908184526020946001916001811690815f146116af5750600114611671575b50505061166f92500383611491565b565b5f90815285812095935091905b81831061169757505061166f93508201015f8080611660565b8554888401850152948501948794509183019161167e565b91505061166f9593507fffffffffffffffffffffffffffffffffffffffffffffffffffffffffffffff0091501682840152151560051b8201015f8080611660565b90601f19601f602080948051918291828752018686015e5f8582860101520116010190565b1561171c57565b606460405162461bcd60e51b815260206004820152600960248201527f4e6f7420726561647900000000000000000000000000000000000000000000006044820152fd5b9190820180921161176d57565b7f4e487b71000000000000000000000000000000000000000000000000000000005f52601160045260245ffd5b81156117a4570490565b7f4e487b71000000000000000000000000000000000000000000000000000000005f52601260045260245ffd5b156117d857565b606460405162461bcd60e51b815260206004820152600e60248201527f496e76616c6964206d61726b65740000000000000000000000000000000000006044820152fd5b1561182357565b606460405162461bcd60e51b815260206004820152600f60248201527f4d61726b6574207265736f6c76656400000000000000000000000000000000006044820152fd5b1561186e57565b606460405162461bcd60e51b815260206004820152600c60248201527f4e6f74207265736f6c76656400000000000000000000000000000000000000006044820152fd5b156118b957565b606460405162461bcd60e51b815260206004820152600960248201527f4e6f74206f776e657200000000000000000000000000000000000000000000006044820152fd5b9060408051927f458693c90000000000000000000000000000000000000000000000000000000084526004840152808360248173ea30c4b8b44078bbf8a6ef5b9f1ec1626c7848d95afa9283156119ae575f915f94611967575b505067ffffffffffffffff169190565b8194508092503d83116119a7575b61197f8183611491565b810103126100ef57602082519201519182151583036100ef5767ffffffffffffffff5f611957565b503d611975565b50513d5f823e3d90fd5b73ea30c4b8b44078bbf8a6ef5b9f1ec1626c7848d9803b156100ef576040517f65d0509c00000000000000000000000000000000000000000000000000000000815260048101929092523060248301525f908290818381604481015b03925af18015611a2e57611a255750565b61166f90611461565b6040513d5f823e3d90fd5b91908215611ba5575b8015611b97575b8115611b87575b60405192611a5d84611418565b600384526060366020860137611a7284612009565b52611a7c83612016565b52815160021015611b5a5760608201526020611aee60405192611a9e84611475565b5f8452611b0060405194859384937f1888debd0000000000000000000000000000000000000000000000000000000085526005600486015260046024860152608060448601526084850190611fa0565b90600319848303016064850152611fa0565b03815f73ea30c4b8b44078bbf8a6ef5b9f1ec1626c7848d95af1908115611a2e575f91611b2b575090565b90506020813d602011611b52575b81611b4660209383611491565b810103126100ef575190565b3d9150611b39565b7f4e487b71000000000000000000000000000000000000000000000000000000005f52603260045260245ffd5b9050611b91612026565b90611a50565b50611ba0612026565b611a49565b9150604051611bb381611475565b5f815260405190611bc382611418565b6003825260603660208401375f611bd983612009565b525f611be483612016565b52815160021015611b5a57611aee6020915f6060850152611c4760405194859384937f1888debd0000000000000000000000000000000000000000000000000000000085525f6004860152601a6024860152608060448601526084850190611fa0565b03815f73ea30c4b8b44078bbf8a6ef5b9f1ec1626c7848d95af1908115611a2e575f91611c76575b5091611a42565b90506020813d602011611ca0575b81611c9160209383611491565b810103126100ef57515f611c6f565b3d9150611c84565b8015611d99575b8115611d89575b6040918251916060830183811067ffffffffffffffff8211176114345784526002835283366020850137611ce983612009565b52611cf382612016565b526020611aee835192611d0584611475565b5f8452611d54855194859384937f1888debd0000000000000000000000000000000000000000000000000000000085526005600486015260086024860152608060448601526084850190611fa0565b03815f73ea30c4b8b44078bbf8a6ef5b9f1ec1626c7848d95af1918215611d8057505f91611b2b575090565b513d5f823e3d90fd5b9050611d93612026565b90611cb6565b50611da2612026565b611caf565b73ea30c4b8b44078bbf8a6ef5b9f1ec1626c7848d9803b156100ef576040517f65d0509c00000000000000000000000000000000000000000000000000000000815260048101929092523360248301525f90829081838160448101611a14565b73ea30c4b8b44078bbf8a6ef5b9f1ec1626c7848d9803b156100ef575f928367ffffffffffffffff93611a14604051978896879586947f1868370100000000000000000000000000000000000000000000000000000000865260048601521660248401526060604484015260648301906116f0565b73ea30c4b8b44078bbf8a6ef5b9f1ec1626c7848d990813b156100ef575f916024839260405194859384927f34ef1e5a00000000000000000000000000000000000000000000000000000000845260048401525af18015611a2e57611a255750565b60405190611eeb82611418565b606080835f81525f60208201525f60408201520152565b60206060611f6f9260405193849283927f27f9c762000000000000000000000000000000000000000000000000000000008452604060048501528051604485015260ff8682015116606485015260ff60408201511660848501520151608060a484015260c48301906116f0565b33602483015203815f73ea30c4b8b44078bbf8a6ef5b9f1ec1626c7848d95af1908115611a2e575f91611b2b575090565b9081518082526020808093019301915f5b828110611fbf575050505090565b835185529381019392810192600101611fb1565b9091611ff86120069360058452601a6020850152608060408501526080840190611fa0565b916060818403910152611fa0565b90565b805115611b5a5760200190565b805160011015611b5a5760400190565b60405161203281611475565b5f81526040519061204282611418565b6003825260603660208401375f61205883612009565b52600561206483612016565b52815160021015611b5a57816020915f6060611b0095015260405193849283927f1888debd00000000000000000000000000000000000000000000000000000000845260048401611fd3565b6040516120bc81611475565b5f8152604051906120cc82611418565b600382526060366020840137620f42406120588361200956fea26469706673582212207056d187dc9fc7092d8d54f1cfa34e606b1172c2add78ca02dc5dde4438abb0764736f6c63430008190033","linkReferences":{}},"methodIdentifiers":{"PRICE_UPDATE_INTERVAL()":"ee937e82","createMarket(string,uint256)":"883c84c1","finalizeClaim(uint256)":"7a971114","finalizePrice(uint256)":"4635eed1","getMarket(uint256)":"eb44fdd3","getPosition(uint256,address)":"d29f541d","marketCount()":"ec979082","markets(uint256)":"b1283e77","owner()":"8da5cb5b","placeBet(uint256,(uint256,uint8,uint8,bytes),(uint256,uint8,uint8,bytes))":"5891397c","publishClaim(uint256,address,uint64,bytes)":"6e4df868","publishPriceUpdate(uint256,uint64,bytes,uint64,bytes)":"69101089","requestClaim(uint256)":"e00b288a","requestPriceUpdate(uint256)":"ee53e6a3","resolve(uint256,bool,uint256,uint256)":"aad6742c"},"id":24}